:020000040800F2
:10000000000001200D150008F5120008FB12000881
:1000100001130008071300080D130008000000007A
:1000200000000000000000000000000013130008A2
:1000300021130008000000002F1300083D130008E2
:100040005D1500085D1500085D1500085D150008C8
:100050005D1500085D1500085D1500085D150008B8
:100060005D1500085D1500085D1500085D150008A8
:100070005D1500085D1500085D1500085D15000898
:100080005D1500085D1500085D1500080000000002
:100090000000000000000000000000005D150008E6
:1000A0005D1500085D1500085D1500085D15000868
:1000B000491300085D1500085D1500085D1500086E
:1000C0005D1500085D1500085D1500085D15000848
:1000D0005D1500085D1500085D15000800000000B2
:1000E0005D1500085D1500085D15000800000000A2
:1000F0000000000000000000000000005D15000886
:10010000000000005D1500085D1500085D15000881
:1001100000000000000000000000000000000000DF
:100120005D1500085D1500085D1500085D150008E7
:100130005D15000800000000000000000000000045
:100140000000000000000000000000005D15000835
:100150005D1500085D1500085D1500085D150008B7
:100160005D1500085D15000800000000000000009B
:10017000000000000000000000000000000000007F
:10018000000000005D1500080000000000000000F5
:040190005D150008F1
:1001A00010B5054C237833B9044B13B10448AFF3B1
:1001B00000800123237010BDE0010020000000003A
:1001C000F075000808B5034B1BB103490348AFF3B2
:1001D000008008BD00000000E4010020F075000868
:1001E000034613F8012B002AFBD1181A0138704777
:1001F00001F0FF01102A2BDB10F0070F08D010F8D8
:10020000013B013A8B422DD010F0070F42B3F6D1DB
:10021000F0B441EA012141EA014122F007047FF0F4
:1002200000070023F0E80256083C85EA010586EA4B
:10023000010685FA47F5A3FA87F586FA47F6A5FA87
:1002400087F68EB9EED1F0BC01F0FF0102F0070293
:1002500032B110F8013B013A83EA010313B1F8D13E
:100260000020704701387047002D06BF354603381F
:10027000073815F0010F07D1013015F4807F02BF58
:10028000013015F4C03F0130F0BC0138704700BFA9
:1002900081F0004102E000BF83F0004330B54FEA37
:1002A00041044FEA430594EA050F08BF90EA020FA4
:1002B0001FBF54EA000C55EA020C7FEA645C7FEA37
:1002C000655C00F0E2804FEA5454D4EB5555B8BF5A
:1002D0006D420CDD2C4480EA020281EA030382EACB
:1002E000000083EA010180EA020281EA0303362D5D
:1002F00088BF30BD11F0004F4FEA01314FF4801C30
:100300004CEA113102D0404261EB410113F0004F41
:100310004FEA03334CEA133302D0524263EB4303F8
:1003200094EA050F00F0A780A4F10104D5F1200E96
:100330000DDB02FA0EFC22FA05F2801841F10001F1
:1003400003FA0EF2801843FA05F359410EE0A5F1C5
:1003500020050EF1200E012A03FA0EFC28BF4CF0F6
:10036000020C43FA05F3C01851EBE37101F00045AC
:1003700007D54FF0000EDCF1000C7EEB00006EEBB9
:100380000101B1F5801F1BD3B1F5001F0CD3490843
:100390005FEA30004FEA3C0C04F101044FEA44529A
:1003A00012F5800F80F09A80BCF1004F08BF5FEA21
:1003B000500C50F1000041EB045141EA050130BD01
:1003C0005FEA4C0C404141EB0101013C28BFB1F513
:1003D000801FE9D291F0000F04BF01460020B1FA5E
:1003E00081F308BF2033A3F10B03B3F120020CDA31
:1003F0000C3208DD02F1140CC2F10C0201FA0CF00F
:1004000021FA02F10CE002F11402D8BFC2F1200C73
:1004100001FA02F120FA0CFCDCBF41EA0C01904029
:10042000E41AA2BF01EB0451294330BD6FEA040472
:100430001F3C1CDA0C340EDC04F11404C4F120025D
:1004400020FA04F001FA02F340EA030021FA04F36F
:1004500045EA030130BDC4F10C04C4F1200220FAC6
:1004600002F001FA04F340EA0300294630BD21FA04
:1004700004F0294630BD94F0000F83F4801306BFCA
:1004800081F480110134013D4EE77FEA645C18BFBE
:100490007FEA655C29D094EA050F08BF90EA020F55
:1004A00005D054EA000C04BF1946104630BD91EA4D
:1004B000030F1EBF0021002030BD5FEA545C05D150
:1004C0004000494128BF41F0004130BD14F580048F
:1004D0003CBF01F5801130BD01F0004545F0FE4103
:1004E00041F470014FF0000030BD7FEA645C1ABF38
:1004F000194610467FEA655C1CBF0B46024650EA6F
:10050000013406BF52EA033591EA030F41F400219A
:1005100030BD00BF90F0000F04BF0021704730B520
:100520004FF4806404F132044FF000054FF00001F5
:1005300050E700BF90F0000F04BF0021704730B5B6
:100540004FF4806404F1320410F0004548BF40428B
:100550004FF000013EE700BF42004FEAE2014FEAE0
:1005600031014FEA02701FBF12F07F4393F07F4FBB
:1005700081F06051704732F07F4208BF704793F0BE
:100580007F4F04BF41F40021704730B54FF46074D1
:1005900001F0004521F000411CE700BF50EA0102D4
:1005A00008BF704730B54FF000050AE050EA01027D
:1005B00008BF704730B511F0004502D5404261EBED
:1005C00041014FF4806404F132045FEA915C3FF42E
:1005D000D8AE4FF003025FEADC0C18BF03325FEACB
:1005E000DC0C18BF033202EBDC02C2F1200300FA7C
:1005F00003FC20FA02F001FA03FE40EA0E0021FAA1
:1006000002F11444BDE600BF70B54FF0FF0C4CF48E
:10061000E06C1CEA11541DBF1CEA135594EA0C0F40
:1006200095EA0C0F00F0DEF82C4481EA030621EA7B
:100630004C5123EA4C5350EA013518BF52EA0335B6
:1006400041F4801143F4801338D0A0FB02CE4FF068
:100650000005E1FB02E506F00042E0FB03E54FF098
:100660000006E1FB03569CF0000F18BF4EF0010E90
:10067000A4F1FF04B6F5007F64F5407404D25FEA8C
:100680004E0E6D4146EB060642EAC62141EA55513F
:100690004FEAC52040EA5E504FEACE2EB4F1FD0C81
:1006A00088BFBCF5E06F1ED8BEF1004F08BF5FEAFF
:1006B000500E50F1000041EB045170BD06F00046B1
:1006C00046EA010140EA020081EA0301B4EB5C045E
:1006D000C2BFD4EB0C0541EA045170BD41F4801156
:1006E0004FF0000E013C00F3AB8014F1360FDEBF7B
:1006F000002001F0004170BDC4F10004203C35DA57
:100700000C341BDC04F11404C4F1200500FA05F3D9
:1007100020FA04F001FA05F240EA020001F000427A
:1007200021F0004110EBD37021FA04F642EB0601F0
:100730005EEA430E08BF20EAD37070BDC4F10C041A
:10074000C4F1200500FA04F320FA05F001FA04F2DE
:1007500040EA020001F0004110EBD37041F10001CA
:100760005EEA430E08BF20EAD37070BDC4F12005D5
:1007700000FA05F24EEA020E20FA04F301FA05F23D
:1007800043EA020321FA04F001F0004121FA04F2E5
:1007900020EA020000EBD3705EEA430E08BF20EAB5
:1007A000D37070BD94F0000F0FD101F000464000EF
:1007B00041EB010111F4801F08BF013CF7D041EA71
:1007C000060195F0000F18BF704703F00046520075
:1007D00043EB030313F4801F08BF013DF7D043EA46
:1007E0000603704794EA0C0F0CEA135518BF95EAFC
:1007F0000C0F0CD050EA410618BF52EA4306D1D183
:1008000081EA030101F000414FF0000070BD50EAA1
:10081000410606BF1046194652EA430619D094EA2B
:100820000C0F02D150EA013613D195EA0C0F05D115
:1008300052EA03361CBF104619460AD181EA030169
:1008400001F0004141F0FE4141F470014FF0000021
:1008500070BD41F0FE4141F4780170BD70B54FF0BC
:10086000FF0C4CF4E06C1CEA11541DBF1CEA13553C
:1008700094EA0C0F95EA0C0F00F0A7F8A4EB05041E
:1008800081EA030E52EA03354FEA013100F0888015
:100890004FEA03334FF0805545EA131343EA1263DE
:1008A0004FEA022245EA111545EA10654FEA002693
:1008B0000EF000419D4208BF964244F1FD0404F54C
:1008C000407402D25B084FEA3202B61A65EB0305A8
:1008D0005B084FEA32024FF480104FF4002CB6EB65
:1008E000020E75EB030E22BFB61A754640EA0C00E5
:1008F0005B084FEA3202B6EB020E75EB030E22BF25
:10090000B61A754640EA5C005B084FEA3202B6EB65
:10091000020E75EB030E22BFB61A754640EA9C0024
:100920005B084FEA3202B6EB020E75EB030E22BFF4
:10093000B61A754640EADC0055EA060E18D04FEAB2
:10094000051545EA16754FEA06164FEAC30343EA52
:1009500052734FEAC2025FEA1C1CC0D111F4801F1F
:100960000BD141EA00014FF000004FF0004CB6E718
:1009700011F4801F04BF01430020B4F1FD0C88BFB7
:10098000BCF5E06F3FF6AFAEB5EB030C04BFB6EBC2
:10099000020C5FEA500C50F1000041EB045170BDB5
:1009A0000EF0004E4EEA113114EB5C04C2BFD4EBE2
:1009B0000C0541EA045170BD41F480114FF0000E66
:1009C000013C90E645EA060E8DE60CEA135594EAE2
:1009D0000C0F08BF95EA0C0F3FF43BAF94EA0C0FE5
:1009E0000AD150EA01347FF434AF95EA0C0F7FF45A
:1009F00025AF104619462CE795EA0C0F06D152EAAE
:100A000003353FF4FDAE1046194622E750EA410691
:100A100018BF52EA43067FF4C5AE50EA41047FF4A2
:100A20000DAF52EA43057FF4EBAE12E74FF0FF3C07
:100A300006E000BF4FF0010C02E000BF4FF0010CD8
:100A40004DF804CD4FEA410C7FEA6C5C4FEA430C51
:100A500018BF7FEA6C5C1BD001B050EA410C0CBFA0
:100A600052EA430C91EA030F02BF90EA020F002002
:100A7000704710F1000F91EA030F58BF994208BF69
:100A800090422CBFD8176FEAE37040F00100704726
:100A90004FEA410C7FEA6C5C02D150EA013C07D17D
:100AA0004FEA430C7FEA6C5CD6D152EA033CD3D0C8
:100AB0005DF8040B704700BF8446104662468C46C2
:100AC0001946634600E000BF01B5FFF7B7FF0028F5
:100AD00048BF10F1000F01BD4DF808EDFFF7F4FF1E
:100AE0000CBF012000205DF808FB00BF4DF808EDA9
:100AF000FFF7EAFF34BF012000205DF808FB00BFCC
:100B00004DF808EDFFF7E0FF94BF012000205DF8ED
:100B100008FB00BF4DF808EDFFF7CEFF94BF0120A2
:100B200000205DF808FB00BF4DF808EDFFF7C4FF9B
:100B300034BF012000205DF808FB00BF4FEA410CE4
:100B40007FEA6C5C02D150EA013C0AD14FEA430CC7
:100B50007FEA6C5C02D152EA033C02D14FF0000004
:100B600070474FF0010070474FEA410212F5001242
:100B700015D211D56FF47873B3EB625212D94FEAE4
:100B8000C12343F0004343EA505311F0004F23FACE
:100B900002F018BF404270474FF00000704750EA23
:100BA000013005D111F0004008BF6FF000407047E0
:100BB0004FF00000704700BF4A0011D212F500123A
:100BC00011D20DD56FF47873B3EB62520ED44FEAA5
:100BD000C12343F0004343EA505323FA02F0704725
:100BE0004FF00000704750EA013002D14FF0FF3063
:100BF00070474FF0000070474FEA4102B2F1E04306
:100C000024BFB3F5001CDCF1FE5C0DD901F0004CF3
:100C10004FEAC0024CEA5070B2F1004F40EB830043
:100C200008BF20F00100704711F0804F21D113F16F
:100C30003872BCBF01F00040704741F480114FEAA8
:100C40005252C2F11802C2F1200C10FA0CF320FA31
:100C500002F018BF40F001004FEAC1234FEAD3234E
:100C600003FA0CFC40EA0C0023FA02F34FEA4303B8
:100C7000CCE77FEA625307D150EA01331EBF4FF041
:100C8000FE4040F44000704701F0004040F0FE405C
:100C900040F40000704700BF53B94AB9002908BFAB
:100CA00000281CBF4FF0FF314FF0FF3000F0AAB911
:100CB000ADF1080C6DE904CE00F03CF8DDF804E07D
:100CC000DDE9022304B0704738B500220023044652
:100CD0000D46FFF70BFF28B920462946BDE83840EE
:100CE00000F00AB8204605F1004100F005F8404246
:100CF00061EB410138BD00BFD0B50C4B0022064668
:100D00000F46FFF781FCFFF757FF0446FFF702FC91
:100D1000074B0022FFF778FC02460B463046394667
:100D2000FFF7BAFAFFF748FF2146D0BD0000F03DBB
:100D30000000F0412DE9F047089D04468E46002B47
:100D40004DD18A42944669D9B2FA82F252B101FA7F
:100D500002F3C2F1200120FA01F10CFA02FC41EA8F
:100D6000030E94404FEA1C48210CBEFBF8F61FFA14
:100D70008CF708FB16E341EA034306FB07F19942AF
:100D80000AD91CEB030306F1FF3080F01F81994262
:100D900040F21C81023E63445B1AA4B2B3FBF8F03C
:100DA00008FB103344EA034400FB07F7A7420AD9C3
:100DB0001CEB040400F1FF3380F00A81A74240F2EB
:100DC00007816444023840EA0640E41B00261DB156
:100DD000D4400023C5E900433146BDE8F0878B428B
:100DE00009D9002D00F0EF800026C5E9000130464A
:100DF0003146BDE8F087B3FA83F6002E4AD18B4224
:100E000002D3824200F2F980841A61EB03030120CD
:100E10009E46002DE0D0C5E9004EDDE702B9FFDEB9
:100E2000B2FA82F2002A40F09280A1EB0C014FEA64
:100E30001C471FFA8CFE0126200CB1FBF7F307FBC1
:100E4000131140EA01410EFB03F0884208D91CEB64
:100E5000010103F1FF3802D2884200F2CB80434601
:100E6000091AA4B2B1FBF7F007FB101144EA0144E0
:100E70000EFB00FEA64508D91CEB040400F1FF316F
:100E800002D2A64500F2BB800846A4EB0E0440EA5D
:100E900003409CE7C6F12007B34022FA07FC4CEA66
:100EA000030C20FA07F401FA06F31C43F9404FEA59
:100EB0001C4900FA06F3B1FBF9F8200C1FFA8CFE6E
:100EC00009FB181140EA014108FB0EF0884202FAC2
:100ED00006F20BD91CEB010108F1FF3A80F0888083
:100EE000884240F28580A8F102086144091AA4B240
:100EF000B1FBF9F009FB101144EA014100FB0EFEC1
:100F00008E4508D91CEB010100F1FF346CD28E45EF
:100F10006AD90238614440EA0840A0FB0294A1EB80
:100F20000E01A142C846A64656D353D05DB1B3EBDD
:100F3000080261EB0E0101FA07F722FA06F3F1400D
:100F40001F43C5E9007100263146BDE8F087C2F1B4
:100F50002003D8400CFA02FC21FA03F3914001432C
:100F60004FEA1C471FFA8CFEB3FBF7F007FB103665
:100F70000B0C43EA064300FB0EF69E4204FA02F411
:100F800008D91CEB030300F1FF382FD29E422DD964
:100F9000023863449B1B89B2B3FBF7F607FB163399
:100FA00041EA034106FB0EF38B4208D91CEB010119
:100FB00006F1FF3816D28B4214D9023E6144C91A99
:100FC00046EA004638E72E46284605E70646E3E6A9
:100FD0001846F8E64B45A9D2B9EB020864EB0C0EB3
:100FE0000138A3E74646EAE7204694E74046D1E7C2
:100FF000D0467BE7023B614432E7304609E7644470
:10100000023842E7704700BF80B500AF00F0A8FA91
:1010100000F00AF800F0C0F800F070F8014801F0A4
:101020004FFAFEE7FC01002080B594B000AF07F155
:10103000200330220021184601F062FE07F10C0364
:1010400000221A605A609A60DA601A610023BB605D
:10105000284B1B6C274A43F080531364254B1B6CB1
:1010600003F08053BB60BB6800237B60224B1B688E
:1010700023F44043204A43F4004313601E4B1B6893
:1010800003F440437B607B6802233B620123FB62E5
:1010900010233B630223BB630023FB6308233B64F1
:1010A00054237B640223BB640423FB6407F1200305
:1010B000184600F091FD0346002B01D000F0C6F861
:1010C0000F23FB6002233B6100237B614FF48053BD
:1010D000BB610023FB6107F10C030221184600F0FD
:1010E000F3FF0346002B01D000F0B0F800BF5037EB
:1010F000BD4680BD003802400070004080B586B01B
:1011000000AF07F1080300221A605A609A60DA60A3
:101110003B4600221A605A601E4B4FF080421A6014
:101120001C4B42F2CF025A601A4B00229A60194BB4
:1011300041F28732DA60174B00221A61154B002208
:101140009A61144801F06CF90346002B01D000F0BD
:101150007DF84FF48053BB6007F1080319460D4832
:1011600001F018FB0346002B01D000F06FF80023BC
:101170003B6000237B603B461946064801F014FDA6
:101180000346002B01D000F061F800BF1837BD46C0
:1011900080BD00BFFC01002080B588B000AF07F122
:1011A0000C0300221A605A609A60DA601A61002308
:1011B000BB60194B1B6B184A43F004031363164BB7
:1011C0001B6B03F00403BB60BB6800237B60124B06
:1011D0001B6B114A43F0800313630F4B1B6B03F02F
:1011E00080037B607B6800224FF400510B4800F0C5
:1011F000BFFC4FF40053FB6001233B6100237B6184
:101200000023BB6107F10C031946044800F02CFBD6
:1012100000BF2037BD4680BD0038024000080240B4
:1012200080B582B000AF78607B68064A934204D1F3
:101230004FF40051044800F0B4FC00BF0837BD462D
:1012400080BD00BFFC0100200008024080B400AF58
:1012500072B600BFFEE7000080B483B000AF002389
:101260007B60104B5B6C0F4A43F4804353640D4B1F
:101270005B6C03F480437B607B6800233B60094B1D
:101280001B6C084A43F080531364064B1B6C03F03D
:1012900080533B603B6800BF0C37BD465DF8047B64
:1012A000704700BF0038024080B584B000AF78605E
:1012B0007B681B68B3F1804F15D10023FB600C4B9A
:1012C0001B6C0B4A43F001031364094B1B6C03F0C6
:1012D0000103FB60FB68002200211C2000F08DFA56
:1012E0001C2000F0A6FA00BF1037BD4680BD00BF2D
:1012F0000038024080B400AFFEE780B400AFFEE7E4
:1013000080B400AFFEE780B400AFFEE780B400AF6A
:10131000FEE780B400AF00BFBD465DF8047B7047B8
:1013200080B400AF00BFBD465DF8047B704780B459
:1013300000AF00BFBD465DF8047B704780B500AFCD
:1013400000F060F900BF80BD80B500AF024801F039
:1013500019F900BF80BD00BFFC01002080B400AFC0
:1013600001231846BD465DF8047B704780B582B006
:1013700000AF7860396001F099FC034616221A60CC
:101380004FF0FF3318460837BD4680BD80B582B0A8
:1013900000AF78604FF0FF317868FFF7E7FFFEE7B6
:1013A00080B586B000AFF860B9607A6000237B61D9
:1013B0000AE0AFF300800146BB685A1CBA60CAB2AB
:1013C0001A707B6901337B617A697B689A42F0DB32
:1013D0007B6818461837BD4680BD80B586B000AF23
:1013E000F860B9607A6000237B6109E0BB685A1C31
:1013F000BA601B781846AFF300807B6901337B61CC
:101400007A697B689A42F1DB7B6818461837BD46DB
:1014100080BD80B483B000AF78604FF0FF331846D2
:101420000C37BD465DF8047B704780B483B000AFD5
:10143000786039603B684FF400525A6000231846C8
:101440000C37BD465DF8047B704780B483B000AFB5
:101450007860012318460C37BD465DF8047B704761
:1014600080B485B000AFF860B9607A600023184698
:101470001437BD465DF8047B7047000080B586B028
:1014800000AF7860144A154BD31A7B617B693B61CE
:10149000134B1B68002B02D1114B124A1A60104BE0
:1014A0001A687B6813443A699A4207D201F0FEFB3E
:1014B00003460C221A604FF0FF3309E0084B1B680B
:1014C000FB60074B1A687B681344054A1360FB688E
:1014D00018461837BD4680BD0000012000040000FA
:1014E000440200206002002080B400AF064BD3F815
:1014F0008830054A43F47003C2F8883000BFBD4607
:101500005DF8047B704700BF00ED00E0DFF834D0E9
:101510000D480E490E4A002302E0D458C45004334B
:10152000C4188C42F9D30B4A0B4C002301E0136022
:101530000432A242FBD3FFF7D7FF01F0BDFBFFF758
:1015400063FD70470000012000000020E001002042
:10155000CC7A0008E00100205C020020FEE70000D9
:1015600080B500AF0E4B1B680D4A43F40073136047
:101570000B4B1B680A4A43F480631360084B1B68DB
:10158000074A43F480731360032000F02BF90F2007
:1015900000F008F8FFF760FE0023184680BD00BF8A
:1015A000003C024080B582B000AF7860124B1A68F0
:1015B000124B1B7819464FF47A73B3FBF1F3B2FB6D
:1015C000F3F3184600F043F90346002B01D0012342
:1015D0000EE07B680F2B0AD8002279684FF0FF30AD
:1015E00000F00BF9064A7B681360002300E001233A
:1015F00018460837BD4680BD0000002008000020C6
:101600000400002080B400AF064B1B781A46064B3E
:101610001B681344044A136000BFBD465DF8047B99
:10162000704700BF080000204802002080B400AFCF
:10163000034B1B681846BD465DF8047B704700BF2E
:101640004802002080B485B000AF78607B6803F06A
:101650000703FB600C4BDB68BB60BA684FF6FF0307
:101660001340BB60FB681A02BB68134343F0BF63BF
:1016700043F40033BB60044ABB68D36000BF143737
:10168000BD465DF8047B704700ED00E080B400AF1C
:10169000044BDB681B0A03F007031846BD465DF8E0
:1016A000047B704700ED00E080B483B000AF0346D8
:1016B000FB7197F90730002B0BDBFB7903F01F025E
:1016C000074997F907305B09012000FA02F241F857
:1016D000232000BF0C37BD465DF8047B704700BF78
:1016E00000E100E080B483B000AF03463960FB71D5
:1016F00097F90730002B0ADB3B68DAB20C4997F9FF
:1017000007301201D2B20B4483F800230AE03B6891
:10171000DAB20849FB7903F00F03043B1201D2B29D
:101720000B441A7600BF0C37BD465DF8047B70474A
:1017300000E100E000ED00E080B489B000AFF860A7
:10174000B9607A60FB6803F00703FB61FB69C3F1D2
:101750000703042B28BF0423BB61FB690433062B5A
:1017600002D9FB69033B00E000237B614FF0FF32AD
:10177000BB6902FA03F3DA43BB681A407B699A40FB
:101780004FF0FF317B6901FA03F3D9437B680B40CB
:10179000134318462437BD465DF8047B70470000AC
:1017A00080B582B000AF78607B68013BB3F1807F89
:1017B00001D301230FE00A4A7B68013B53600F21EC
:1017C0004FF0FF30FFF78EFF054B00229A60044B6D
:1017D00007221A60002318460837BD4680BD00BFA7
:1017E00010E000E080B582B000AF78607868FFF765
:1017F00029FF00BF0837BD4680BD80B586B000AF69
:101800000346B9607A60FB7300237B61FFF73EFFFC
:1018100078617A68B9687869FFF78EFF024697F9B0
:101820000F3011461846FFF75DFF00BF1837BD4661
:1018300080BD80B582B000AF0346FB7197F90730D9
:101840001846FFF731FF00BF0837BD4680BD80B5A1
:1018500082B000AF78607868FFF7A2FF03461846B1
:101860000837BD4680BD000080B489B000AF786005
:10187000396000237B6100233B610023BB610023AF
:10188000FB6159E10122FB6902FA03F37B613B68CA
:101890001B687A6913403B613A697B699A4240F060
:1018A00048813B685B6803F00303012B05D03B686C
:1018B0005B6803F00303022B30D17B689B68BB613C
:1018C000FB695B00032202FA03F3DB43BA691340AE
:1018D000BB613B68DA68FB695B0002FA03F3BA6933
:1018E0001343BB617B68BA699A607B685B68BB61C4
:1018F0000122FB6902FA03F3DB43BA691340BB61BF
:101900003B685B681B0903F00102FB6902FA03F301
:10191000BA691343BB617B68BA695A603B685B680C
:1019200003F00303032B17D07B68DB68BB61FB6903
:101930005B00032202FA03F3DB43BA691340BB6185
:101940003B689A68FB695B0002FA03F3BA691343C8
:10195000BB617B68BA69DA603B685B6803F00303CC
:10196000022B23D1FB69DA087B68083253F8223056
:10197000BB61FB6903F007039B000F2202FA03F32C
:10198000DB43BA691340BB613B681A69FB6903F02A
:1019900007039B0002FA03F3BA691343BB61FB69B7
:1019A000DA087B680832B96943F822107B681B6843
:1019B000BB61FB695B00032202FA03F3DB43BA69F4
:1019C0001340BB613B685B6803F00302FB695B008B
:1019D00002FA03F3BA691343BB617B68BA691A6000
:1019E0003B685B6803F44033002B00F0A2800023C7
:1019F000FB60574B5B6C564A43F480435364544B33
:101A00005B6C03F48043FB60FB68524AFB699B08F4
:101A1000023352F82330BB61FB6903F003039B00E0
:101A20000F2202FA03F3DB43BA691340BB617B6800
:101A3000494A934219D07B68484A934213D07B6845
:101A4000474A93420DD07B68464A934207D07B6851
:101A5000454A934201D1042308E0072306E003230B
:101A600004E0022302E0012300E00023FA6902F00F
:101A7000030292009340BA691343BB613549FB6985
:101A80009B080233BA6941F82320384B9B68BB613D
:101A90003B69DB43BA691340BB613B685B6803F495
:101AA0008013002B03D0BA693B691343BB612F4AF3
:101AB000BB6993602D4BDB68BB613B69DB43BA6953
:101AC0001340BB613B685B6803F40013002B03D039
:101AD000BA693B691343BB61244ABB69D360234B9A
:101AE0005B68BB613B69DB43BA691340BB613B6820
:101AF0005B6803F40033002B03D0BA693B691343DE
:101B0000BB611A4ABB695360184B1B68BB613B69D8
:101B1000DB43BA691340BB613B685B6803F4803305
:101B2000002B03D0BA693B691343BB610F4ABB6901
:101B30001360FB690133FB61FB690F2B7FF6A2AEDB
:101B400000BF00BF2437BD465DF8047B704700BF6F
:101B5000003802400038014000000240000402400A
:101B600000080240000C024000100240003C01400E
:101B700080B483B000AF78600B467B8013467B70E7
:101B80007B78002B03D07A887B689A6103E07B889E
:101B90001A047B689A6100BF0C37BD465DF8047B70
:101BA000704780B485B000AF78600B467B807B685F
:101BB0005B69FB607A88FB6813401A04FB68D943B1
:101BC0007B880B401A437B689A6100BF1437BD467F
:101BD0005DF8047B7047000080B586B000AF786088
:101BE0007B68002B01D1012367E27B681B6803F04F
:101BF0000103002B75D0884B9B6803F00C03042B6A
:101C00000CD0854B9B6803F00C03082B12D1824B40
:101C10005B6803F48003B3F5800F0BD17E4B1B6828
:101C200003F40033002B5BD07B685B68002B57D13B
:101C3000012342E27B685B68B3F5803F06D1764BB7
:101C40001B68754A43F4803313601DE07B685B6852
:101C5000B3F5A02F0CD1704B1B686F4A43F480235F
:101C600013606D4B1B686C4A43F4803313600BE0C8
:101C7000694B1B68684A23F480331360664B1B680A
:101C8000654A23F4802313607B685B68002B13D0C4
:101C9000FFF7CCFC386108E0FFF7C8FC02463B695F
:101CA000D31A642B01D9032307E25B4B1B6803F4AF
:101CB0000033002BF0D014E0FFF7B8FC386108E0E7
:101CC000FFF7B4FC02463B69D31A642B01D9032306
:101CD000F3E1514B1B6803F40033002BF0D100E01B
:101CE00000BF7B681B6803F00203002B63D04A4BE4
:101CF0009B6803F00C03002B0BD0474B9B6803F051
:101D00000C03082B1CD1444B5B6803F48003002BAD
:101D100016D1414B1B6803F00203002B05D07B68F2
:101D2000DB68012B01D00123C7E13B4B1B6823F08B
:101D3000F8027B681B69DB00374913430B603AE00C
:101D40007B68DB68002B20D0344B01221A60FFF740
:101D50006DFC386108E0FFF769FC02463B69D31A65
:101D6000022B01D90323A8E12B4B1B6803F00203CC
:101D7000002BF0D0284B1B6823F0F8027B681B690E
:101D8000DB00254913430B6015E0244B00221A6049
:101D9000FFF74CFC386108E0FFF748FC02463B695E
:101DA000D31A022B01D9032387E11B4B1B6803F0D5
:101DB0000203002BF0D17B681B6803F00803002BA3
:101DC00036D07B685B69002B16D0154B01221A6058
:101DD000FFF72CFC386108E0FFF728FC02463B695E
:101DE000D31A022B01D9032367E10B4B5B6F03F07E
:101DF0000203002BF0D01BE0094B00221A60FFF712
:101E000015FC38610EE0FFF711FC02463B69D31A5E
:101E1000022B07D9032350E100380240000047425B
:101E2000800E4742884B5B6F03F00203002BEAD120
:101E30007B681B6803F00403002B00F097800023ED
:101E4000FB75814B1B6C03F08053002B0FD10023DB
:101E5000BB607D4B1B6C7C4A43F0805313647A4B10
:101E60001B6C03F08053BB60BB680123FB75774B91
:101E70001B6803F48073002B18D1744B1B68734AE2
:101E800043F480731360FFF7D1FB386108E0FFF77C
:101E9000CDFB02463B69D31A022B01D903230CE187
:101EA0006A4B1B6803F48073002BF0D07B689B683F
:101EB000012B06D1644B1B6F634A43F00103136788
:101EC0001CE07B689B68052B0CD15F4B1B6F5E4A47
:101ED00043F0040313675C4B1B6F5B4A43F0010341
:101EE00013670BE0584B1B6F574A23F0010313672E
:101EF000554B1B6F544A23F0040313677B689B68A0
:101F0000002B15D0FFF792FB38610AE0FFF78EFB3C
:101F100002463B69D31A41F28832934201D9032326
:101F2000CBE0494B1B6F03F00203002BEED014E013
:101F3000FFF77CFB38610AE0FFF778FB02463B695C
:101F4000D31A41F28832934201D90323B5E03E4BC4
:101F50001B6F03F00203002BEED1FB7D012B05D19B
:101F6000394B1B6C384A23F0805313647B689B69A0
:101F7000002B00F0A180344B9B6803F00C03082B6E
:101F80005CD07B689B69022B41D1314B00221A60E7
:101F9000FFF74CFB386108E0FFF748FB02463B695E
:101FA000D31A022B01D9032387E0274B1B6803F0C8
:101FB0000073002BF0D17B68DA697B681B6A1A43D7
:101FC0007B685B6A9B011A437B689B6A5B08013BE9
:101FD0001B041A437B68DB6A1B061B4913434B60D7
:101FE0001B4B01221A60FFF721FB386108E0FFF765
:101FF0001DFB02463B69D31A022B01D903235CE087
:10200000114B1B6803F00073002BF0D054E0104B11
:1020100000221A60FFF70AFB386108E0FFF706FBB1
:1020200002463B69D31A022B01D9032345E0064B34
:102030001B6803F00073002BF0D13DE07B689B69C7
:10204000012B07D1012338E0003802400070004026
:10205000600047421B4B5B68FB607B689B69012B00
:1020600028D0FB6803F480027B68DB699A4221D1A7
:10207000FB6803F03F027B681B6A9A421AD1FA6838
:1020800047F6C07313407A68526A9201934211D1A5
:10209000FB6803F440327B689B6A5B08013B1B04CE
:1020A0009A4207D1FB6803F070627B68DB6A1B060B
:1020B0009A4201D0012300E0002318461837BD469C
:1020C00080BD00BF0038024080B584B000AF7860AA
:1020D00039607B68002B01D10123CCE0684B1B6881
:1020E00003F007033A689A420CD9654B3A68D2B2BA
:1020F0001A70634B1B6803F007033A689A4201D0D9
:102100000123B8E07B681B6803F00203002B20D09A
:102110007B681B6803F00403002B05D0594B9B68B8
:10212000584A43F4E05393607B681B6803F008034C
:10213000002B05D0534B9B68524A43F46043936095
:10214000504B9B6823F0F0027B689B684D4913431A
:102150008B607B681B6803F00103002B44D07B6815
:102160005B68012B07D1474B1B6803F40033002B3E
:1021700019D101237FE07B685B68022B03D07B6869
:102180005B68032B07D13F4B1B6803F00073002BE8
:1021900009D101236FE03B4B1B6803F00203002BC6
:1021A00001D1012367E0374B9B6823F003027B6872
:1021B0005B68344913438B60FFF738FAF8600AE034
:1021C000FFF734FA0246FB68D31A41F28832934291
:1021D00001D903234FE02B4B9B6803F00C027B6873
:1021E0005B689B009A42EBD1254B1B6803F0070309
:1021F0003A689A420CD2224B3A68D2B21A70204BFB
:102200001B6803F007033A689A4201D0012332E0C9
:102210007B681B6803F00403002B08D0194B9B68F4
:1022200023F4E0527B68DB68164913438B607B68BC
:102230001B6803F00803002B09D0124B9B6823F4A2
:1022400060427B681B69DB000E4913438B6000F022
:1022500021F802460B4B9B681B0903F00F030A4948
:10226000CB5C22FA03F3094A1360094B1B6818463A
:10227000FFF798F9002318461037BD4680BD00BF10
:10228000003C0240003802400876000800000020B0
:10229000040000202DE9B04F90B000AF00237B6315
:1022A0000023FB6300233B630023BB63594B9B6804
:1022B00003F00C03082B0DD0082B00F2A180002B9B
:1022C00002D0042B03D09BE0534BBB639BE0534BEA
:1022D000BB6398E04F4B5B6803F03F037B634D4B60
:1022E0005B6803F48003002B28D04A4B5B689B0992
:1022F00000223B627A623B6AC3F308000021474B2D
:1023000003FB01F2002300FB03F31344434AA0FB49
:102310000212FA620A46BA62FA6A1344FB627B6BE3
:102320000022BB61FA61D7E90623D7E90A01FEF76B
:10233000B3FC02460B461346FB6353E0354B5B6828
:102340009B0900223B617A613B69C3F3080A4FF0A5
:10235000000B52465B464FF000004FF00001590160
:1023600041EAD261500102460B46B2EB0A0863EB28
:102370000B094FF000024FF000034FEA891343EAC4
:1023800098634FEA8812B2EB080463EB09054FF03B
:1023900000024FF00003EB0043EA5473E2001446DE
:1023A0001D4614EB0A033B6045EB0B037B604FF0CB
:1023B00000024FF00003D7E9004529468B02214671
:1023C00043EA915321468A02104619467B6B00224C
:1023D000BB60FA60D7E90223FEF75EFC02460B46BB
:1023E0001346FB630B4B5B681B0C03F003030133C9
:1023F0005B003B63FA6B3B6BB2FBF3F3BB6302E046
:10240000054BBB6300BFBB6B18464037BD46BDE8FC
:10241000B08F00BF003802400024F40040787D01F6
:1024200080B582B000AF78607B68002B01D10123BA
:1024300041E07B6893F83D30DBB2002B06D17B682E
:10244000002283F83C207868FEF72EFF7B6802228A
:1024500083F83D207B681A687B6804331946104670
:1024600000F088FA7B68012283F846207B6801220D
:1024700083F83E207B68012283F83F207B6801229D
:1024800083F840207B68012283F841207B68012289
:1024900083F842207B68012283F843207B68012275
:1024A00083F844207B68012283F845207B68012261
:1024B00083F83D20002318460837BD4680BD000044
:1024C00080B485B000AF78607B6893F83D30DBB2B4
:1024D000012B01D0012344E07B68022283F83D20D8
:1024E0007B681B68DA687B681B6842F00102DA606F
:1024F0007B681B681E4A934218D07B681B68B3F147
:10250000804F13D07B681B681A4A93420ED07B68B9
:102510001B68194A934209D07B681B68174A93428B
:1025200004D07B681B68164A934211D17B681B68F4
:102530009B6803F00703FB60FB68062B10D07B68E9
:102540001B681A687B681B6842F001021A6007E08A
:102550007B681B681A687B681B6842F001021A607E
:10256000002318461437BD465DF8047B704700BF52
:10257000000001400004004000080040000C004042
:102580000040014080B582B000AF78607B681B6876
:102590001B6903F00203022B22D17B681B68DB68F6
:1025A00003F00203022B1BD17B681B686FF0020251
:1025B0001A617B6801221A777B681B689B6903F0AC
:1025C0000303002B03D0786800F0B5F905E07868C4
:1025D00000F0A7F9786800F0B8F97B6800221A7754
:1025E0007B681B681B6903F00403042B22D17B6802
:1025F0001B68DB6803F00403042B1BD17B681B689A
:102600006FF004021A617B6802221A777B681B68EC
:102610009B6903F44073002B03D0786800F08BF9BA
:1026200005E0786800F07DF9786800F08EF97B6845
:1026300000221A777B681B681B6903F00803082BCC
:1026400022D17B681B68DB6803F00803082B1BD1D1
:102650007B681B686FF008021A617B6804221A7796
:102660007B681B68DB6903F00303002B03D07868E9
:1026700000F061F905E0786800F053F9786800F03F
:1026800064F97B6800221A777B681B681B6903F07A
:102690001003102B22D17B681B68DB6803F010034A
:1026A000102B1BD17B681B686FF010021A617B68CE
:1026B00008221A777B681B68DB6903F44073002BE0
:1026C00003D0786800F037F905E0786800F029F960
:1026D000786800F03AF97B6800221A777B681B68FB
:1026E0001B6903F00103012B0ED17B681B68DB68BB
:1026F00003F00103012B07D17B681B686FF0010217
:102700001A617868FEF78CFD7B681B681B6903F013
:102710008003802B0ED17B681B68DB6803F080038D
:10272000802B07D17B681B686FF080021A61786884
:1027300000F0B2FA7B681B681B6903F04003402B72
:102740000ED17B681B68DB6803F04003402B07D188
:102750007B681B686FF040021A61786800F0FFF830
:102760007B681B681B6903F02003202B0ED17B685C
:102770001B68DB6803F02003202B07D17B681B68F4
:102780006FF020021A61786800F07CFA00BF083709
:10279000BD4680BD80B584B000AF7860396000234D
:1027A000FB737B6893F83C30012B01D10223B4E02A
:1027B0007B68012283F83C207B68022283F83D205D
:1027C0007B681B689B68BB60BB6823F07703BB60BA
:1027D000BB6823F47F43BB607B681B68BA689A6060
:1027E0003B681B68B3F5005F3ED0B3F5005F00F2B5
:1027F0008780B3F5805F00F08680B3F5805F7FD877
:10280000702B1AD0702B7BD8602B50D0602B77D8D0
:10281000502B3CD0502B73D8402B58D0402B6FD826
:10282000302B64D0302B6BD8202B60D0202B67D876
:10283000002B5CD0102B5AD062E07B6818683B6894
:1028400099683B685A683B68DB6800F08DF97B68E3
:102850001B689B68BB60BB6843F07703BB607B6809
:102860001B68BA689A604FE07B6818683B68996893
:102870003B685A683B68DB6800F076F97B681B6848
:102880009A687B681B6842F480429A603CE07B68EF
:1028900018683B6859683B68DB681A4600F0EAF83C
:1028A0007B681B685021184600F043F92CE07B68D8
:1028B00018683B6859683B68DB681A4600F009F9FC
:1028C0007B681B686021184600F033F91CE07B68C8
:1028D00018683B6859683B68DB681A4600F0CAF81C
:1028E0007B681B684021184600F023F90CE07B68E8
:1028F0001A683B681B681946104600F01AF903E095
:102900000123FB7300E000BF7B68012283F83D20B8
:102910007B68002283F83C20FB7B18461037BD46BD
:1029200080BD80B483B000AF786000BF0C37BD4677
:102930005DF8047B704780B483B000AF786000BF5F
:102940000C37BD465DF8047B704780B483B000AFA0
:10295000786000BF0C37BD465DF8047B704780B4DB
:1029600083B000AF786000BF0C37BD465DF8047BD4
:102970007047000080B485B000AF786039607B6834
:102980001B68FB607B68344A93420FD07B68B3F1CD
:10299000804F0BD07B68314A934207D07B68304A26
:1029A000934203D07B682F4A934208D1FB6823F0FF
:1029B0007003FB603B685B68FA681343FB607B68ED
:1029C000254A93421BD07B68B3F1804F17D07B68B8
:1029D000224A934213D07B68214A93420FD07B68EE
:1029E000204A93420BD07B681F4A934207D07B68F2
:1029F0001E4A934203D07B681D4A934208D1FB686C
:102A000023F44073FB603B68DB68FA681343FB60A8
:102A1000FB6823F080023B685B691343FB607B68C3
:102A2000FA681A603B689A687B68DA623B681A68E1
:102A30007B689A627B68084A934203D13B681A69B3
:102A40007B681A637B6801225A6100BF1437BD4658
:102A50005DF8047B704700BF0000014000040040A7
:102A600000080040000C00400040014000440140CC
:102A70000048014080B487B000AFF860B9607A6068
:102A8000FB681B6A7B61FB681B6A23F00102FB6821
:102A90001A62FB689B693B613B6923F0F0033B6171
:102AA0007B681B013A6913433B617B6923F00A038E
:102AB0007B617A69BB6813437B61FB683A699A6101
:102AC000FB687A691A6200BF1C37BD465DF8047B5B
:102AD000704780B487B000AFF860B9607A60FB6877
:102AE0001B6A23F01002FB681A62FB689B697B611A
:102AF000FB681B6A3B617B6923F470437B617B68E5
:102B00001B037A6913437B613B6923F0A0033B619C
:102B1000BB681B013A6913433B61FB687A699A61A0
:102B2000FB683A691A6200BF1C37BD465DF8047B3A
:102B3000704780B485B000AF786039607B689B686F
:102B4000FB60FB6823F07003FB603A68FB6813438B
:102B500043F00703FB607B68FA689A6000BF143794
:102B6000BD465DF8047B704780B487B000AFF86065
:102B7000B9607A603B60FB689B687B617B6923F48A
:102B80007F437B613B681A027B681A43BB6813432F
:102B90007A6913437B61FB687A699A6000BF1C37CE
:102BA000BD465DF8047B704780B485B000AF7860A7
:102BB00039607B6893F83C30012B01D1022350E04F
:102BC0007B68012283F83C207B68022283F83D2049
:102BD0007B681B685B68FB607B681B689B68BB60ED
:102BE000FB6823F07003FB603B681B68FA681343C3
:102BF000FB607B681B68FA685A607B681B681C4A2C
:102C0000934218D07B681B68B3F1804F13D07B6868
:102C10001B68184A93420ED07B681B68164A934281
:102C200009D07B681B68154A934204D07B681B68F7
:102C3000134A93420CD1BB6823F08003BB603B680E
:102C40005B68BA681343BB607B681B68BA689A60AC
:102C50007B68012283F83D207B68002283F83C20BA
:102C6000002318461437BD465DF8047B704700BF4B
:102C7000000001400004004000080040000C00403B
:102C80000040014080B483B000AF786000BF0C37D3
:102C9000BD465DF8047B704780B483B000AF7860B8
:102CA00000BF0C37BD465DF8047B7047014B1868C8
:102CB000704700BF0C00002070B50D4D0D4C641B1B
:102CC000A4100026A64209D10B4D0C4C04F090FC38
:102CD000641BA4100026A64205D170BD55F8043B24
:102CE00098470136EEE755F8043B98470136F2E77E
:102CF000C47A0008C47A0008C47A0008C87A0008B8
:102D000002440346934200D1704703F8011BF9E7E0
:102D10002DE9FF4755EC104B002D0E4619462B466A
:102D2000BBBF05F100431D4600232D230B700D9BF7
:102D3000DDF830A0914623F02008BCBF224614469F
:102D4000B8F1460F05D0B8F1450F00D10136022188
:102D500000E0032103AB019302AB009345EC104B61
:102D60005346324601F0ACFDB8F1470F074602D199
:102D700019F0010F22D0B8F1460F07EB060910D168
:102D80003B78302B0AD10022002320462946FDF74C
:102D9000A3FE18B9C6F10106CAF80060DAF80030DF
:102DA00099440022002320462946FDF795FE08B1EC
:102DB000CDF80C903022039B4B4507D3039B0E9A12
:102DC000DB1B3846136004B0BDE8F087591C039143
:102DD0001A70F0E7F7B503460029B8BF494203F877
:102DE000022BB4BF2D222B22092942702ADD0DF1BE
:102DF0000704A4460A27A6460A4691FBF7F607FBF6
:102E000016153035632A04F1FF340EF8015C3146A3
:102E1000F1DC3031AEF1020504F8011C441C2946F6
:102E200061450AD30DF10902A2EB0E02654588BF88
:102E300000221344181A03B0F0BD11F8012B04F856
:102E4000012FEDE7302330318370C170031DF1E7AE
:102E50002DE9F04F2DED028B8DB00C46DDF8608032
:102E600016461F46054602F089FED0F800A05046DF
:102E7000FDF7B6F900230A9323680593D8F80030CC
:102E800094F818B0073323F0070303F10802C8F8D9
:102E90000020D3E90023C4E91223D4E9128929F0E0
:102EA00000430793CDF8188008EE100A9F4BDDE928
:102EB00006014FF0FF32FDF741FE88BBDDE9060158
:102EC0009A4B4FF0FF32FDF71BFE48BB0022002358
:102ED00040464946FDF70AFE10B12D2384F84330E1
:102EE000934B9448BBF1470F94BF98468046032309
:102EF0002361059B23F0040222604FF00009009734
:102F000033460BAA2146284600F0D8F9013040F09C
:102F100090804FF0FF300DB0BDEC028BBDE8F08F1C
:102F200042464B4640464946FDF708FE40B14B46F7
:102F3000002BBCBF2D2384F843307F487F4BD1E763
:102F400063680BF0DF0206925A1C3FD106236360D0
:102F5000059B616843F48062002303930AABCDE9CB
:102F600001B309AB49EC108B009322600DF12303F0
:102F70002846FFF7CDFE069B0999472B804608D1CE
:102F8000C81C02DB6368994241DDABF1020B5FFABA
:102F90008BFBBBF1650F20D801395A4604F1500074
:102FA0000991FFF717FF0A9A1318012A8146236136
:102FB00002DC2268D20701D5013323619DF823305A
:102FC000002B9CD02D2384F8433098E7069A472A9B
:102FD000BED1002BBCD10123B9E7BBF1660F18D1DC
:102FE000002963680BDD216113B92268D00702D57F
:102FF00001330B442361A1654FF00009DEE713B9EB
:103000002268D20701D50233F4E70123F2E74FF03B
:10301000670B0A9B994205DB23682161D807EAD533
:103020004B1CE7E70029D4BFC1F10202012213447F
:10303000E0E723685A0507D423694246314628460B
:10304000B84701302CD164E7BBF1650F40F2E08056
:10305000D4E9120100220023FDF73EFD002834D000
:10306000374A012331462846B84701303FF451AF73
:10307000DDE909239A4202DB2368D80710D518EE50
:10308000103A524631462846B84701303FF441AF26
:103090004FF0000804F11A090A9B013B434509DC83
:1030A00023689B0700F10581E0680B9B9842B8BF3D
:1030B000184630E701234A4631462846B8470130D2
:1030C0003FF427AF08F10108E6E7099B002B39DC44
:1030D0001B4A012331462846B84701303FF419AF57
:1030E000DDE90923134302D12368D907D8D518EEA7
:1030F000103A524631462846B84701303FF409AFEE
:103100004FF0000904F11A0A099B5B424B4501DCB0
:103110000A9B92E70123524631462846B8470130C0
:103120003FF4F7AE09F10109EEE700BFFFFFEF7FC3
:103130001C7600082076000828760008247600080F
:103140002C7600080A9AA36D9A42A8BF1A46002A54
:10315000914637DC4FF0000B29EAE97904F11A02B5
:10316000A36D0593A3EB09035B4533DCDDE909237C
:103170009A423BDB2368DA0738D40A9B059A0999FF
:103180009A1AA3EB01099145A8BF9146B9F1000F26
:1031900035DC4FF0000829EAE97904F11A0ADDE983
:1031A00009239B1AA3EB090343457FF779AF01235A
:1031B000524631462846B84701303FF4AAAE08F1DE
:1031C0000108ECE71346314642462846B84701302D
:1031D000C0D19EE60123314628460592B84701300A
:1031E0003FF497AE059A0BF1010BB9E718EE103AD0
:1031F000524631462846B8470130BED189E6059A85
:103200004B46424431462846B8470130C1D180E69A
:103210000A9A012A01DCDB0738D5012342463146F0
:103220002846B84701303FF474AE18EE103A5246C3
:1032300031462846B84701303FF46BAED4E912015D
:1032400000220023FDF748FCD8B90A9B08F10102CF
:10325000013B31462846B84701300ED159E60123DB
:10326000524631462846B84701303FF452AE08F185
:1032700001080A9B013B4345F1DC4B4604F1500237
:10328000DCE64FF0000804F11A0AF2E70123424697
:10329000DFE701234A4631462846B84701303FF46C
:1032A00038AE08F10108E3680B995B1A4345F0DC7E
:1032B000FAE64FF0000804F11909F4E72DE9F047A8
:1032C000164699468A680B69DDF820809342B8BF9C
:1032D0001346336091F8432007460C460AB1013388
:1032E00033602368990642BF336802333360256830
:1032F00015F0060506D104F1190AE36832689B1A35
:10330000AB4226DC94F84320131E226818BF012329
:1033100092062BD404F1430249463846C047013097
:103320001ED02368E568326803F00603042B08BF4B
:10333000AD1AA36822690CBF25EAE5750025934202
:10334000C4BF9B1AED1800261A34B5421AD10020CA
:1033500008E00123524649463846C047013003D1B0
:103360004FF0FF30BDE8F0870135C6E7E1185A1C81
:10337000302081F84300224494F8451082F843102D
:103380000233C7E70123224649463846C047013089
:10339000E6D00136D9E700002DE9FF470F7E0C9DEE
:1033A000782F914680460C469A4601F1430207D891
:1033B000622F0AD8002F00F0D880582F00F0A38089
:1033C00004F1420584F842703AE0A7F16303152B3B
:1033D000F6D801A151F823F0313400084534000833
:1033E000C1330008C1330008C1330008C1330008ED
:1033F00045340008C1330008C1330008C133000858
:10340000C133000851350008753400083335000811
:10341000C1330008C133000873350008C133000808
:1034200075340008C1330008C13300083B3500087B
:103430002B681A1D1B682A6004F1420584F842308B
:103440000123A3E020682968060601F104030AD5D8
:103450000E682B60002E03DA2D23764284F8433069
:103460005E480A2319E00E682B6010F0400F18BF69
:1034700036B2EFE72B682068191D2960010601D5D7
:103480001E6802E04606FBD51E8854486F2F0CBF0D
:1034900008230A23002184F843106568A560002DE5
:1034A000A2BF216821F0040121600EB9002D4DD08A
:1034B0001546B6FBF3F103FB1167C75D05F8017D07
:1034C0003746BB420E46F4D9082B0BD12368DE07E2
:1034D00008D5236961689942DEBF302305F8013CB5
:1034E00005F1FF35521B2261CDF800A04B4603AA1F
:1034F00021464046FFF7E2FE01304CD14FF0FF304D
:1035000004B0BDE8F087354881F845702968236824
:1035100051F8046B29601D0614D5DF0744BF43F042
:10352000200323601EB9236823F0200323601023A7
:10353000B0E7236843F0200323607823284884F809
:103540004530E3E7590648BFB6B2E6E71546BBE7A4
:103550002B6826686169181D286035061B6801D52F
:10356000196002E07006FBD519800023236115461F
:10357000BAE72B681A1D2A601D6862680021284678
:10358000FCF736FE08B1401B6060636823610023CE
:1035900084F84330A8E723692A4649464046D04785
:1035A0000130ABD023689B0713D4E068039B98429B
:1035B000B8BF1846A4E70123324649464046D047E3
:1035C00001309BD00135E36803995B1AAB42F2DC12
:1035D000EBE7002504F11906F5E700BF2E76000899
:1035E0003F7600082DE9F04F87B0174603938B68AC
:1035F0005A1EB2F5AE7F83BF6FF4AE755B190293AE
:10360000002386BF40F25D138B6002930B688B46EC
:10361000002543F4F0634BF81C3BCDE9045580468C
:103620000C465E46AA46A9460195A26852B13B687F
:103630001B784E2B64D8402B3CD8A3F12B01C8B289
:103640000E283AD9B9F1000F03D0236823F4807310
:1036500023600AF1FF3ABAF1010F00F213815E45CF
:1036600000F205810125284607B0BDE8F08FA3F1DF
:1036700061020D2AE6D801A151F822F0BB370008FB
:103680004536000845360008453600081B38000856
:10369000F33700084536000845360008C9370008EA
:1036A000453600084536000845360008453600080E
:1036B00081370008A3F14102DBE70E29C2D801A03F
:1036C00050F821F0733700084536000873370008BA
:1036D0000738000845360008213700085D37000824
:1036E0005D3700085D3700085D3700085D3700086A
:1036F0005D3700085D3700085D3700085D3700085A
:103700006E2B09D8602BB2D8542B77D0592B99D176
:10371000072D97D1082529E0742B6FD0792BF6E778
:103720002168C8051AD5029B21F08001216009F1AA
:1037300001091BB1013B01320293A260A368013B66
:10374000A3602369013323617B68013B002B7B600D
:1037500040F384803B6801333B6066E71AEB050F5A
:103760007FF470AF226822F4C072226006F8013B39
:10377000E4E7226810067FF565AF22F08002F4E7E7
:10378000BAF1000F0ED1B9F1000F0ED1226802F488
:10379000E061B1F5E06F08D122F4F06222604FF0F1
:1037A000010AE3E7BAF1020F55D0012D02D0042D32
:1037B0007FF448AF0135EDB2D8E7BAF1010F7FF4DD
:1037C00041AF4FF0020AD1E77DB9B9F1000F7FF4A4
:1037D0003CAF226802F4E061B1F5E06F7FF439AFED
:1037E00022F4F06222600125C0E7032DE2D0052D0E
:1037F000DEE7022D7FF426AF0325B7E7062D7FF421
:1038000021AF0725B2E7226891057FF51BAF22F4AF
:1038100020722260CDF80490A8E7226802F4A0612B
:10382000B1F5806F06D050057FF50CAFB9F1000FF0
:103830003FF40FAF910558BF019922F4F06258BFD1
:10384000A9EB010142F4C07258BFCDE90416226011
:103850004FF000098AE74FF0030A87E7D4F8803178
:1038600039464046984700283FF4DFAEEAE6D4F8F0
:103870007C3116F8011D3A46404698472369013BC2
:103880002361ECE66B1E062B25D8022D36D85E454B
:103890007FF6E8AED4F87C3116F8011D3A46404672
:1038A00098472369013B2361F1E70298D4F87C3102
:1038B00010F8011D02903A46404698472369013BA3
:1038C00023610AF1FF3A5FFA8AFABAF1020FECD1EA
:1038D000033DEDB2761B2368DA052FD55B0510D5C5
:1038E0005E457FF6BFAED4F87C3116F8011D3A462E
:1038F000404698472369013B2361F1E7AA460296B7
:10390000DFE716F8011C2369652903F1FF3306F18F
:10391000FF3523610CD045290AD0D4F87C313A46D2
:1039200040469847236916F8021C013BB51E2361E7
:10393000D4F87C313A46404698472E46256815F023
:10394000100559D13570236803F4C063B3F5806F57
:103950001BD1019B4B45A3EB090223D10022594601
:10396000404600F097FE2268039B12F0020F57ECCE
:10397000106B1B6821D003991A1D0A601B68C3E9EC
:103980000067E3680133E3606DE6049B002BE5D03C
:1039900005990A232A460131404600F003FF049BA3
:1039A000059EC21A04F26F139E4228BF04F5B77633
:1039B0001249304600F02CF8D0E7039912F0040FBA
:1039C00003F104020A60D9D1D3F8008010EE102A66
:1039D00010EE100A3B463946FDF7B0F828B108480A
:1039E00000F010F888ED000ACBE730463946FDF7C5
:1039F00003F9C8F80000C4E7002534E65076000853
:103A0000587A00089FED010A704700BF0000C07F90
:103A10000EB400B59CB01DAB029006906FF0004153
:103A2000094807910491094953F8042B059100684E
:103A3000019302A902F0E2FE029B00221A701CB060
:103A40005DF804EB03B070470C0000200802FFFF94
:103A500070B504460D4645EC104B164602F02CFCA2
:103A600051EC100B7EB1C5F30A53C3F16B03002B6D
:103A700009DD1B0503F17F55002405F5401522469D
:103A80002B46FCF7C1FD70BD2DE9F04F2DED028BEB
:103A90009DB01F4600231893A24B13921B680593F9
:103AA000044618468846FCF79BFB4FF0000A054683
:103AB0004FF0000BCDF85C80179B1A782B2A4ED064
:103AC0003BD80D2A34D8082A34D8002A3ED0002307
:103AD0000A93179E3378302B40F0B080737803F050
:103AE000DF03582B68D10A9B019318AB0297009310
:103AF0008D4A19AB17A9204601F038FD10F00707D1
:103B0000054605D0062F2CD10136002317960A93BF
:103B1000139B002B40F090850A9BEBB152460BF1B2
:103B2000004343EC102B1DB0BDEC028BBDE8F08FC1
:103B3000202ACCD101331793BEE72D2AC7D1012209
:103B40000A925A1C17925B78002BC2D1139BCDF8B6
:103B50005C80002B40F06E8552465B46E1E7002218
:103B6000EEE7189A3AB135211AA802F0B0FC18997C
:103B7000204602F06FF8013F042F06D8DFE807F077
:103B80000A0314170A00DDE91AAB2807C0D54BF069
:103B9000004BBDE7DDE91AA3199A23F4801302F262
:103BA000334243EA025BF0E7DFF880B1EDE76FF004
:103BB000004B4FF0FF3AE8E7179B5A1C17925B78CF
:103BC000302BF9D0002BA3D001234FF00009049330
:103BD000179B0893CDF81C904F460A221798067839
:103BE000A6F13003D9B209292AD905992A4602F04B
:103BF0001FFF98B3002032463D4605900346652AD4
:103C000001D0452A18D11DB9049A02439ED000253F
:103C1000DDF85C8008F10102179298F801202B2A48
:103C200075D02D2A7BD04FF0000CA2F1300109296C
:103C300040F28280CDF85C8000269DE00023C4E73E
:103C4000082FD8BF079900F10100DABF02FB01334A
:103C5000079302FB093901371790BFE7179B5A19E1
:103C600017925A5D002F37D005903D46A2F13003E0
:103C7000092B12D90123C2E7179B5A1C17925A78B5
:103C80000130302AF8D0A2F13103082B00F2D98498
:103C9000179B0590002008930546303A00F1010378
:103CA00014D00599194405912B4600EB050E0A2105
:103CB000734513D12B18082B05F1010505441CDCB5
:103CC00007990A2303FB012307930023179A511C2A
:103CD000179152781846C9E73846D2E7082B04DC1A
:103CE000079E4E4307960133E2E703F1010CBCF156
:103CF000100FD8BF01FB09F9F5E7102DDCBF0A232F
:103D000003FB0929E1E70023059301237CE74FF03A
:103D1000000C08F10202179298F8022085E74FF094
:103D2000010CF6E7A0780008587600080000F07F44
:103D3000179A511C17915278302AF9D0A2F131010B
:103D400008293FF679AFA2F1300E179A0692179A1A
:103D5000511C17915278A2F13006092E37D9069ED0
:103D6000891B082944F61F6602DC7645A8BF764603
:103D7000BCF1000F00D07642002D4DD104990143D3
:103D80007FF4C6AE002B7FF4E1AE692A27D024DC95
:103D9000492A24D04E2A7FF4D9AE9F4917A801F0B2
:103DA0003DFE00283FF4D2AE179B1B78282B2DD167
:103DB0009A491AAA17A801F045FE052826D11B9B8F
:103DC000DDF868A043F0FF4B4BF4E00BA0E60A21BE
:103DD00001FB0E2EAEF1300EB9E76E2ADBE79049FB
:103DE00017A801F01BFE00283FF4B0AE179B8D49C9
:103DF000013B17A8179301F011FE10B9179B01336F
:103E00001793DFF830B24FF0000A81E6864802F0DF
:103E1000F7FD5BEC10AB7BE6059B0798F31A002FD0
:103E200008BF2F46102D0693A846A8BF4FF01008D4
:103E3000FCF770FB092D82468B4613DD7B4B03EBB1
:103E4000C80353E91223FCF7DFFB824648468B4642
:103E5000FCF760FB02460B4650465946FCF71EFA3B
:103E600082468B460F2D38DC069B002B3FF450AE6C
:103E700024DD162B0BDC6D4901EBC301D1E90001F8
:103E800052465B46FCF7C0FB82468B4640E6069AEC
:103E9000C5F12503934220DB644CC5F10F0504EB0B
:103EA000C50152465B46D1E90001FCF7ADFB069B1C
:103EB0005D1B04EBC504D4E90023E3E7069B16333E
:103EC0000BDB059B9E1B594B03EBC606D6E9002373
:103ED00050465946FCF7C2FCD6E7069BA5EB0808FE
:103EE0009844B8F1000F74DD18F00F030AD04F4961
:103EF00001EBC30152465B46D1E90001FCF784FBAC
:103F000082468B4638F00F084FD0B8F59A7F22DDF5
:103F100000252E46079505952223DFF818B123606A
:103F20004FF0000A079B002B3FF4F2AD1899204692
:103F300001F090FE0599204601F08CFE31462046A6
:103F400001F088FE0799204601F084FE29462046AC
:103F500001F080FEDCE5364B049300234FEA28187D
:103F6000504659469946B8F1010F21DC0BB1824603
:103F70008B462F4BABF1547B03EBC90952465B4692
:103F8000D9E90001FCF740FB2A4B0A460B402A49BD
:103F90008B428246BCD8A1F580118B4286BFDFF8E8
:103FA0009CB04FF0FF3A02F1547B0023049384E06D
:103FB00018F0010F05D0049BD3E90023FCF724FB84
:103FC0000123049A083209F101094FEA68080492B2
:103FD000C9E7EAD0C8F1000818F00F020AD0134B65
:103FE00003EBC20350465946D3E90023FCF736FCE5
:103FF00082468B465FEA2818D7D0B8F11F0F1FDD25
:1040000000252E460795059522234FF0000A4FF014
:10401000000B236086E700BF297600086C76000855
:1040200021760008AC770008587A00083879000833
:10403000107900080000F07F0000A07CFFFFEF7FF8
:1040400018F0100318BF6A23DFF8AC9304935046AE
:104050005946002318F0010F04D0D9E90023FCF7DA
:10406000D3FA01235FEA680809F10809F2D10BB11C
:1040700082468B46049BC3B1CBF30A52C2F16B0359
:10408000002B594611DD1F2B40F32481342BDEBF5A
:10409000C2F14B024FF0FF3303FA02F24FF0000A75
:1040A000CCBF4FF05C7B02EA010B0022002350469C
:1040B0005946FCF711FD0028A2D1079B00930899EF
:1040C0002B463A46204601F02DFE079000283FF48B
:1040D0001FAF059B9E1B069B002BB4BF33460023DE
:1040E0000C93069B002523EAE37312932E46079B4D
:1040F0002046596801F06EFD059000283FF40CAF92
:10410000079B1A69023203F10C0192000C3001F096
:1041100053FD4BEC10AB1AAA19A9204602F048F93E
:104120004BEC18AB189000283FF4F6AE0121204666
:1041300001F092FE064600283FF4EEAE199B04996A
:10414000002BABBF0C9A129A129FDDF83090ACBFD7
:1041500003EB0209D71A1A9AA3EB01089044A14B6A
:1041600008F1FF389845C2F1360280F2C780A3EB10
:1041700008031F2BA2EB03024FF0010100F3B180F3
:1041800001FA03F30D930023089309EB0208049B43
:10419000C14517441F444B46A8BF4346BB42A8BF76
:1041A0003B46002BC2BFA8EB0308FF1AA9EB03098B
:1041B0000C9B002B17DD31461A46204601F00CFF00
:1041C000064600283FF4A8AE0146189A204601F0A2
:1041D00059FE0B9000283FF49FAE1899204601F03D
:1041E00039FD0B9B1893B8F1000F00F38C80069BF0
:1041F000002B08DD129A0599204601F0EDFE05908E
:1042000000283FF489AE002F08DD05993A46204684
:1042100001F03CFF059000283FF47EAEB9F1000F9D
:1042200008DD31464A46204601F030FF06460028A8
:104230003FF472AE059A1899204601F0B3FF054687
:1042400000283FF469AEC3680B930023C360314676
:1042500001F08CFF002860DA0B9B53EA0A0340F060
:104260008280CBF31303002B7DD12BF000431B0D79
:104270001B05B3F1D66F76D96B6913B92B69012B86
:1042800071DD29460122204601F000FF3146054636
:1042900001F06CFF002866DD0499534A5B46002953
:1042A00000F0818002EA0B01B1F1D66F7BDCB1F145
:1042B0005C7F7FF7A9AE4D4B504659460022FCF774
:1042C000A3F90B46034308BF222382468B4608BF4F
:1042D00023602BE64FF0FF3202FA03F303EA0A0AE7
:1042E000E3E6C8F17F4808F57F0808F57B4808F148
:1042F000E20801FA08F308930D9146E700230893BA
:1043000001230D9341E718994246204601F0BEFE75
:10431000189000287FF46BAFFEE55F466ED10B9AD4
:10432000CBF3130342B3324A934228D1049B514644
:10433000EBB12D4B3B40B3F1D46F4FF0FF3219D8A6
:104340001B0DC3F16B0302FA03F3994217D1294BFA
:104350009F4202D101313FF4DFAD234B3B4003F5D7
:10436000801B4FF0000A049B002BA4D1DEE54FF028
:10437000FF33EAE71346E8E753EA0A038CD0089BC9
:10438000DBB13B42EFD00B9B049A50465946C3B178
:10439000FFF75EFB02460B4651EC180BFBF77EFF66
:1043A00082468B46DFE71340A3F580136FEA135B69
:1043B0006FEA0B5B4FF0FF3AD5E70D9B13EA0A0F4C
:1043C000E0E7FFF745FB02460B4651EC180BFBF705
:1043D00063FF0022002382468B46FCF77DFB00280A
:1043E000C1D011E602FCFFFF0000F07F0000503951
:1043F000FFFF0F00FFFFEF7F807600083146284661
:1044000002F032F859EC108B10EE100A00224FF037
:1044100080434946FCF774FB00287AD00B9B002BA5
:104420004AD0954B0022CDE90823DFF84C924FF09B
:104430000008924B3B400D930D9A914B9A4240F0ED
:10444000B080DDE90801A7F1547B4BEC10ABCDE95E
:10445000080101F031FFDDE9080153EC102BFCF7F6
:10446000D3F852465B46FBF719FF0B468349854A52
:1044700019409142824660D918EE903A02F1547286
:10448000934204D118EE103A01333FF445ADDFF802
:1044900000B24FF0FF3A1899204601F0DBFB059976
:1044A000204601F0D7FB3146204601F0D3FB2946D8
:1044B000204601F0CFFB1AE6BAF1000F1BD1CBF377
:1044C0001303F3B96C4B002240464946FCF70EFB40
:1044D000D0B9404649466C4B0022FCF795F880461F
:1044E000894609F10043CDF850801593DDE9142386
:1044F000CDE908239DE7BAF1010F02D1002F3FF467
:1045000083AD624B00228EE7DFF87C914FF000080C
:10451000E7E75D4B404649460022FCF775F80B9BE8
:104520008046894633B901F100430E900F93DDE9CF
:104530000E23DDE7CDE90E89F9E703F1547B049BF7
:10454000002BA8D12BF000430D9A1B0D1B059A429E
:10455000A1D140464946FCF7B7FBFCF727F80246D5
:104560000B4640464946FBF797FE0B9ACBF31303E5
:1045700043EA0A0313438046894655D036A3D3E95C
:104580000023FCF7B3FA00287FF4D0AC34A3D3E9BE
:10459000002340464946FCF7C7FA00283FF47BAFAA
:1045A000C4E4049B33B30D9BB3F1D46F22D82EA384
:1045B000D3E9002340464946FCF7A2FAA0B1494698
:1045C0004046FCF7F9FA012838BF0120FBF7A2FFAB
:1045D0000B9B8046894623BB01F100431090119349
:1045E000DDE91023CDE90823099B0D9A03F1D66379
:1045F0009B1A0993DDE90801B0EE480AF0EE680A5B
:10460000CDE9080101F058FEDDE9080153EC102B5B
:10461000FBF7FAFF53EC182BFBF740FE82468B4664
:104620008DE7CDE91089DBE711A3D3E90023FCF77F
:104630005DFAB2E700230A93139A179B1360FFF702
:104640006BBA652A3FF45FAB452A3FF45CAB0123AC
:10465000FFF794BBAFF300809535A094FFFFDF3FD9
:1046600035E5AF350000E03F0000C0FFFFFFDF4150
:104670009535A094FFFFCF3F0000F03F0000F07F92
:104680000000E07FFFFF9F7C0000E03F0000F0BFE4
:10469000FFFFEF7F014BFFF7F7B900BF7400002069
:1046A000012B2DE9F04701D0242B06D9FEF7FEFAA5
:1046B000162303600020BDE8F087DFF8E4C00D4654
:1046C0002E4615F8014B14F80C7017F00807F7D1B7
:1046D0002D2C32D12C780127B51C002B5BD0102B50
:1046E00009D1302C07D12C7804F0DF04582C4DD19F
:1046F0006C781023023507F1004808F1FF384FF0BD
:10470000000CB8FBF3F9664603FB198AA4F1300EDE
:10471000BEF1090F16D87446A34224DDBCF1000F88
:104720001EDBB1451CD301D1A24519DB06FB0346B4
:104730004FF0010C15F8014BE8E72B2C04BF2C7847
:10474000B51CCAE7A4F1410EBEF1190F01D8373CE0
:10475000E2E7A4F1610EBEF1190F04D8573CDBE784
:104760004FF0FF3CE6E7BCF1000F05DA22230360BF
:10477000464642B930469EE707B17642002AF9D054
:10478000BCF1000F00D0691E1160F3E73024002B4C
:10479000B1D10823AFE7302CA5D00A23ABE700BF87
:1047A000A9760008FFF77CBF2DE9F74F03690C6974
:1047B000A3420746C0F28180013C01F1140800F1D8
:1047C000140505EB8403019358F8243055F8242090
:1047D00001339A424FEA840B08EB8409B2FBF3F6EB
:1047E00031D34FF0000E4046AC46F24650F8042B51
:1047F00093B206FB03E34FEA134E9BB2AAEB03030B
:10480000DCF800A0120C13FA8AF306FB02E2009314
:10481000009B4FEA124E92B2C2EB1A4202EB2342C5
:10482000BDF80030814543EA02434CF8043B4FEAAF
:10483000224ADBD255F80B302BB9019B043B9D4239
:104840001A462ED33C61384601F090FC002824DB48
:10485000013628464FF0000C58F8042BD0F800E041
:1048600093B2ACEB0303120C13FA8EF3C2EB1E42AD
:1048700002EB23429BB243EA0243C14540F8043BAA
:104880004FEA224CE8D255F8242005EB840322B9E4
:10489000043B9D421A460AD33C61304603B0BDE852
:1048A000F08F1268043B002ACCD1013CC7E71268A4
:1048B000043B002AF0D1013CEBE70020EEE70000CA
:1048C0002DE9F04F2DED048B57EC106B93B0456A3A
:1048D000DDF88080069110EE10AA044609920C9330
:1048E000BB4675B9102001F04DF90246606220B94F
:1048F000A74BEA21A74802F0BDF8C0E901550560C1
:10490000C560636A196851B15A684A6001239340CF
:104910008B60204601F09EF9636A00221A603B1EFC
:10492000AABF002323F0004BC8F800309A4BBCBF4D
:104930000122C8F8002033EA0B031BD10C9A42F283
:104940000F731360CBF31303334300F09285219B65
:1049500063B9924B22E0924B01930833219A136082
:10496000019813B0BDEC048BBDE8F08F8B4B019325
:104970000333F3E70022002350465946FCF7ACF816
:104980004BEC19AB804658B10C9A01231360219B64
:10499000002B00F06B8583481860431E0193DFE70E
:1049A0004BEC10AB10AA11A9204601F001FDCBF38E
:1049B0000A5508EE100A002D00F0848019EE903A96
:1049C000C3F3130343F07F57564647F44017A5F24D
:1049D000FF35CDF83880744B002230463946FBF75E
:1049E0005BFC65A3D3E90023FBF70EFE64A3D3E9C8
:1049F0000023FBF753FC064628460F46FBF79AFDBB
:104A000061A3D3E90023FBF7FFFD02460B463046C6
:104A10003946FBF743FC06460F46FCF7A5F8002293
:104A20000090002330463946FCF760F850B10098FA
:104A3000FBF780FD32463B46FCF74EF810B9009B71
:104A4000013B0093009B162B5AD8009A574B03EB5F
:104A5000C203D3E9002351EC190BFCF747F80028F7
:104A600050D0009B013B009300230B93109B5D1BD8
:104A70006B1E059345BFC5F101030493002300237A
:104A80004CBF05930493009B002B3DDB059B009AD4
:104A90000A921344059300230793069B092B00F207
:104AA0008980052BC4BF043B0693069BA3F1020338
:104AB000CCBF00250125032B00F28780DFE803F03F
:104AC0002D3A3859DDE910531D4405F23243202BAD
:104AD000C1BFC3F1400305F212400BFA03F326FAFB
:104AE00000F0DABFC3F1200306FA03F01843FBF726
:104AF00011FD01230646A1F1F877013D0E936AE707
:104B00000123B2E70B90B1E7049B009A9B1A049330
:104B10005342079300230A93BFE700230893099B9E
:104B2000002B55DC0123CDE902331A4609920CE033
:104B30000123F3E70023099A0893009B134402938F
:104B40000133012B0393B8BF0123606A0022426046
:104B5000042202F114069E4241683DD9204601F02C
:104B600039F8019000283BD1114B02464FF4D57122
:104B7000C0E60123DFE700BF61436F63A787D23F31
:104B8000B3C8608B288AC63FFB799F501344D33F3C
:104B9000B6770008CD7700080000F07FB2770008F4
:104BA000A97700082D7600080000F83F3879000842
:104BB0002878000801250023069308954FF0FF335D
:104BC000CDE9023300221223B0E701230893F5E771
:104BD000099BCDE90233B8E7013141605200B8E7E3
:104BE000636A019A1A60039B0E2B00F29D80002DD0
:104BF00000F09A80009B002B32DDB74A03F00F03D0
:104C000002EBC303D3E90089009BD8054FEA2317C1
:104C100016D5B24B51EC190BD3E90823FBF71EFE56
:104C200007F00F0782468B460325AC4E57B9424624
:104C30004B4650465946FBF711FE82468B4628E00C
:104C40000225F2E7F90708D540464946D6E9002390
:104C5000FBF7DAFC0135804689467F100836E5E728
:104C600000F09B80009B9D4F5E429B4B06F00F0225
:104C700003EBC203D3E9002351EC190BFBF7C4FC8F
:104C8000361182468B4600230225002E7AD1002B56
:104C9000D3D10B9B002B00F08280914B0022504619
:104CA0005946FBF723FF002879D0039B002B76D0D1
:104CB000029B002B36DD009B504659465F1E0022AA
:104CC000884BFBF7A1FC029E82468B4601352846A5
:104CD000FBF730FC52465B46FBF796FC824B00220A
:104CE000FBF7DCFAD046D9468246A1F1507B002E74
:104CF00058D17E4B002240464946FBF7CDFA52463A
:104D00005B4680468946FBF70FFF002840F09582FE
:104D100052460BF1004340464946FBF7E7FE0028A8
:104D200040F089825BEC19AB119B002BC0F24881EB
:104D3000009A0E2A00F34481674B03EBC203D3E9C8
:104D40000089099B002B80F2D580039B002B00F388
:104D5000D18040F06F82654B002240464946FBF708
:104D600053FC52465B46FBF7D5FE039E37460028B0
:104D700040F04582019D312305F8013B009B013342
:104D8000009340E2F20705D5D7E90023FBF73CFC8E
:104D9000013501237610083777E7022579E7009F70
:104DA000039E94E701994C4B31440D91089903EB14
:104DB000C60353E90223002943D04D490020FBF7E5
:104DC0004DFD52465B46FBF767FA019D82468B46D6
:104DD00049464046FBF7C8FE0646FBF7ABFB0246DA
:104DE0000B4640464946FBF757FA303605F8016B4B
:104DF00052465B4680468946FBF778FE002863D121
:104E000042464B4636490020FBF746FA52465B467F
:104E1000FBF76CFE002840F0B5800D9B9D4281D0D1
:104E2000304B002250465946FBF7EEFB2D4B824695
:104E30008B46404649460022FBF7E6FB8046894602
:104E4000C6E750465946FBF7DFFB0D9B019D0F93CC
:104E500082468B4649464046FBF786FE0646FBF7F0
:104E600069FB303602460B4640464946FBF714FACA
:104E700005F8016B0D9B9D42804689464FF000026C
:104E800024D11B4B50465946FBF708FA02460B4605
:104E900040464946FBF748FE002873D152465B4620
:104EA00013490020FBF7F8F902460B4640464946F5
:104EB000FBF71CFE00283FF435AF0F9D6B1E0F93D0
:104EC00015F8013C302BF8D0009749E0054BFBF773
:104ED0009BFB80468946BDE73879000810790008B9
:104EE0000000F03F0000244000001C40000014407F
:104EF0000000E03F019D56465F4642464B46304625
:104F00003946FBF7ABFCFBF72FFE8246FBF712FBA3
:104F100042464B46FBF778FB02460B463046394685
:104F20000AF13006FBF7B8F905F8016B019E039F03
:104F3000AE1BB74202460B4635D1FBF7AFF94246EE
:104F40004B4606460F46FBF7EFFDD0B942464B46AF
:104F500030463946FBF7C0FD10B11AF0010F10D1F1
:104F6000204618EE101A00F075FE002300982B70F2
:104F70000C9B01301860219B002B3FF4F1AC1D60AD
:104F8000EEE4009F2B461D4613F8012D392A06D169
:104F9000019A9A42F7D10199302201370A701A78A2
:104FA00001321A7090E7A64B0022FBF72DFB00227E
:104FB000002306460F46FBF78FFD00289DD0CFE764
:104FC000089A002A00F0D780069A012A00F3BA80D6
:104FD0000E9A002A00F0B28003F23343079E049D2C
:104FE000049A1A440492059A01211A442046059213
:104FF00000F032FF0746002D0CDD059B002B09DD7C
:10500000AB42049AA8BF2B46D21A0492059AED1A15
:10501000D31A0593079B1BB3089B002B00F0AF80AE
:10502000002E13DD39463246204600F0D5FF18EE3B
:10503000102A01460746204600F024FF18EE101AF9
:105040008046204600F006FE08EE108A079B9A1B59
:1050500006D018EE101A204600F0BEFF08EE100A27
:105060000121204600F0F8FE0A9B002B064640F383
:1050700088801A460146204600F0AEFF069B012BB1
:10508000064640F381804FF00008336906EB830346
:10509000186900F091FEC0F12000059B184410F043
:1050A0001F0000F09280C0F12003042B40F38A809F
:1050B000C0F11C00049B03440493059B0344054476
:1050C0000593049B002B07DD18EE101A1A462046A4
:1050D00000F0DCFF08EE100A059B002B05DD3146D1
:1050E0001A46204600F0D2FF06460B9B002B6ED0DE
:1050F00018EE100A314601F039F8002867DA009BF3
:10510000013B18EE101A00930A220023204600F0FB
:10511000C3FD089B08EE100A002B00F0B1810023AC
:1051200039460A22204600F0B7FD029B002B0746B5
:1051300000F38E80069B022B51DC89E0109BC3F1AB
:1051400036034BE7039B5E1E079BB342BFBF079B23
:105150000796F21A0A9BB6BF9B189E1B0A93039BE5
:10516000B8BF0026002BB7BFDDE90323DDE9033517
:105170009D1A002334E7079E049D089F3BE7079A8A
:1051800067E7069B012B18DCBAF1000F15D1CBF3B2
:10519000130393B92BF000431B0D1B0583B1049B34
:1051A00001330493059B013305934FF001080A9BDB
:1051B000002B7FF46AAF01206FE74FF00008F6E79D
:1051C0009846F4E73FF47DAF18461C3072E7039B26
:1051D000002B37DC069B022B34DD039B0293029BE2
:1051E0006BB931460522204600F056FD01460646C1
:1051F00018EE100A00F0BAFF00283FF7BBAD099B7C
:10520000019DDB4300934FF000083146204600F03B
:1052100021FD002F3FF4A4AEB8F1000F05D0B84532
:1052200003D04146204600F015FD3946204600F0E7
:1052300011FD95E600263746E1E70097374699E5E8
:1052400000002440089B002B00F0CA80039B0293BF
:10525000002D05DD39462A46204600F017FF074697
:10526000B8F1000F5BD07968204600F0B3FC05462A
:1052700028B9874B024640F2EA21FFF73BBB3A6967
:105280000232920007F10C010C3000F095FC012273
:105290002946204600F0FAFE019B03F10109DDE9F1
:1052A0000123134405930AF00103B846049307460B
:1052B000314618EE100AFFF777FA4146029000F1E6
:1052C000300A18EE100A00F051FF3A4603903146BA
:1052D000204600F067FFC26809F1FF3B054602BBAC
:1052E000014618EE100A00F041FF0246294620460A
:1052F000079200F0AFFCDDE9063243EA0201049BAD
:105300000B434D460FD1BAF1390F2AD0039B002B26
:1053100002DD029B03F1310A8BF800A075E73846E5
:10532000BAE70122E2E7039B002B04DB06990B435B
:1053300004990B4322D1002AEEDD18EE101A012247
:10534000204600F0A3FE314608EE100A00F00EFFE2
:10535000002803DCE0D11AF0010FDDD0BAF1390FDB
:10536000D7D139238BF800302B461D46013B15F869
:10537000012C392A71D001321A7046E7002A07DD64
:10538000BAF1390FEDD00AF101038BF800303CE798
:10539000059B09F801AC994547D018EE101A002377
:1053A0000A22204600F078FCB84508EE100A4FF0BB
:1053B00000034FF00A024146204606D100F06CFC83
:1053C0008046074609F1010972E700F065FC39469D
:1053D000804600230A22204600F05EFC0746F1E7E3
:1053E000039B0293019D18EE100A3146FFF7DCF98A
:1053F00000F1300A019B05F801ABEA1A029B9342C7
:1054000009DD18EE101A00230A22204600F044FCA1
:1054100008EE100AE7E7029B002BC8BF1D46019B60
:10542000D8BF01251D444FF0000818EE101A0122C4
:10543000204600F02BFE314608EE100A00F096FEE2
:10544000002891DC02D11AF0010F8DD12B461D46A8
:1054500013F8012D302AFAD0D7E6019A9A4284D166
:10546000009B0133009331231370CEE6094BFFF705
:1054700095BA219B002B7FF46EAA074BFFF78EBADB
:10548000029B002BAEDC069B022B3FF7A8AEA9E7E0
:10549000287800082C760008A97700080369B3EB88
:1054A000611F2DE9F0434FEA611200F1140445DD5C
:1054B00011F01F0104EB830604EB82050CD100F10F
:1054C00010072946B14234D39B1A9B00EA1E96422C
:1054D00038BF0023234415E054F82270C1F120089E
:1054E000CF4005F1040EA1467645F44615D89A1A28
:1054F0009200043A0135AE4238BF0022A318A750EB
:1055000007B104331A1BA3424FEAA20208BF0023CB
:10551000026108BF4361BDE8F083DCF800C00CFA0B
:1055200008FC4CEA070749F8047B5EF8047BCF408F
:10553000DAE751F804CB47F804CFC3E72346E1E7A5
:10554000A0F13003092B02D82038C0B27047A0F177
:105550006103052B01D84738F7E7A0F14103052B7C
:1055600001D82738F1E70020704700002DE9F04FFF
:105570002DED028B89B008EE100A0493B44B1B6822
:10558000019318468B469046FAF72AFE019BDBF8FA
:1055900000200344824613F8013C0593931CC2F19A
:1055A000FF2202F57F02FE32D1181F4613F8010BCD
:1055B00000913028F8D0FFF7C3FF044600283AD105
:1055C00001995246384601F033FA0546002868D161
:1055D00017F80A0007EB0A06FFF7B2FF002862D0AF
:1055E0003346187830281F4603F10103F9D0FFF73E
:1055F000A7FF0123B0FA80F46409354600933A46C8
:10560000164601323078FFF79BFF0028F8D1019948
:105610005246304601F00CFA80B94DB906EB0A0546
:105620002A46164601323078FFF78AFF0028F8D163
:10563000AD1BAD0004E000242546E0E7002DF7D1C6
:10564000337803F0DF03502B3BD173782B2B2CD016
:105650002D2B2ED0711C4FF000090878FFF770FF3A
:10566000431EDBB2182B2CD8A0F1100211F8010F49
:10567000FFF766FF431EDBB2182B1DD9B9F1000FEF
:1056800000D052421544CBF80010E4B1009B002B2F
:1056900014BF00270627384609B0BDEC028BBDE8D1
:1056A000F08F3E4625460124CAE74FF00009B11CA1
:1056B000D3E74FF00109FAE70A2303FB0202103A8D
:1056C000D4E73146DFE7F31B013B2146072B0BDC18
:1056D00018EE100A00F07EFA044640B95D4B02460F
:1056E000DE215D4801F0C6F901315B10EEE700F103
:1056F00014094FF0000BCAF10103CDF80890CDF862
:1057000000B00693B74240D30298009B40F8043B98
:10571000A0EB0900801046012061184600F04CFB08
:10572000301AD8F80060B04263DD871B3946204646
:1057300000F0F0FE8246A8B17B1E591103F01F0253
:1057400059F821104FF0010A0AFA02F20A4209D070
:10575000534505DDB91E204600F0DCFE002845D18A
:105760004FF0020A39462046FFF798FE3D44D8F82C
:105770000830AB424CDA18EE100A214600F06AFA03
:10578000149A00231360A32785E7731E059A0393D9
:1057900016F8013C934219D0BBF1200F07D1029BB0
:1057A000009A43F8042B0293002300939B4616F8BB
:1057B000010CFFF7C5FE009B00F00F0000FA0BF094
:1057C000034300930BF1040B039B0DE0039B069A2C
:1057D0001344BB42E0D3184601990793524601F0A7
:1057E00027F9079B0028D7D11E468BE74FF0030A05
:1057F000B8E70ADA371A214618EE100A3A4600F0DE
:1058000045FCED1B044600F114094FF0000AAEE719
:10581000D8F80400A84272DD451BAE4236DCD8F849
:105820000C30022B2AD0032B2CD0012B1CD1AE42E2
:105830001AD1012E12D1049AD8F804301360012332
:105840002361C9F80030149B62271C6023E700BF66
:10585000A07800082878000839780008711E2046D2
:1058600000F058FE0028E6D118EE100A214600F09C
:10587000F1F9149A0023136050270CE7159B002BB5
:10588000F2D1D8E7159B002BD5D1EDE76F1EBAF109
:10589000000F31D127B13946204600F03BFE824649
:1058A0007B11012159F8233007F01F0701FA07F790
:1058B0001F422946204618BF4AF0020A761BFFF70E
:1058C000EDFDD8F804500227BAF1000F48D0D8F8FF
:1058D0000C30022B15D0032B17D0012B09D11AF055
:1058E000020F06D0D9F800004AEA000A1AF0010FA8
:1058F0000ED147F0100733E04FF0010AD0E701273F
:10590000E2E7159BC3F101031593159B002BF0D023
:10591000D4F810B004F114034FEA8B0A03EB8B01A7
:105920004FF0000C184653F8042BB2F1FF3F1CD087
:1059300001320260022F04F114033FD1D8F8002095
:10594000013AB2420AD17111012253F8213006F016
:105950001F0602FA06F61E4218BF174647F0200738
:10596000149B1C60049B1D6095E6994243F804CC8F
:10597000D8D8A3689B4519DB616818EE100A01317D
:1059800000F028F9814618B91A4B02468421A8E68E
:105990002269023204F10C0192000C3000F00CF983
:1059A000214618EE100A00F055F94C4623695A1C9E
:1059B00004EB8303226101225A61BBE722695A4545
:1059C0000BDD01212046FFF769FDD8F808300135CD
:1059D000AB42FFF6D0AE0127C0E716F01F06FAD0A3
:1059E0005344C6F1200653F8040C00F0E5F9B04228
:1059F000E7DBF0E728780008C2F10802920070B5F2
:105A0000C2F120064368046803FA06F52C43D3402C
:105A1000046040F8043F8842F4D370BD30B5036899
:105A2000013311F8014B14B90360012030BD13F8A4
:105A3000012BA2F14105192D98BF2032A242F0D0CE
:105A40000020F3E72DE9F04F0B685E1102EB8606AC
:105A500013F01F0387B018BF04360025371F904688
:105A600002680193824646F8045CB9463C460295BA
:105A7000AB465178531C039341B3084605920491F9
:105A8000FFF75EFD00284FD10499059A202918D808
:105A9000029B9B4513DD4C4506D2072D04DC2A46AC
:105AA00049462046FFF7A8FF444550D90023A4F1FA
:105AB000040944F8043CCDF808B04C461D46039A4E
:105AC000D7E7292956D10232CAF80020BBF1000FCE
:105AD00050D04C4506D2072D04DC2A4649462046C4
